{
  "contractName": "Social",
  "abi": [
    {
      "constant": true,
      "inputs": [
        {
          "name": "",
          "type": "uint256"
        }
      ],
      "name": "comment",
      "outputs": [
        {
          "name": "id",
          "type": "string"
        },
        {
          "name": "post_id",
          "type": "string"
        },
        {
          "name": "user_name",
          "type": "string"
        },
        {
          "name": "vote",
          "type": "uint256"
        }
      ],
      "payable": false,
      "stateMutability": "view",
      "type": "function",
      "signature": "0x00981cc9"
    },
    {
      "constant": true,
      "inputs": [
        {
          "name": "",
          "type": "uint256"
        }
      ],
      "name": "user",
      "outputs": [
        {
          "name": "id",
          "type": "string"
        },
        {
          "name": "level",
          "type": "uint256"
        },
        {
          "name": "reputation",
          "type": "uint256"
        },
        {
          "name": "userName",
          "type": "string"
        },
        {
          "name": "password",
          "type": "string"
        },
        {
          "name": "email",
          "type": "string"
        },
        {
          "name": "etherwallet",
          "type": "string"
        }
      ],
      "payable": false,
      "stateMutability": "view",
      "type": "function",
      "signature": "0x553275be"
    },
    {
      "constant": true,
      "inputs": [
        {
          "name": "",
          "type": "uint256"
        }
      ],
      "name": "post",
      "outputs": [
        {
          "name": "id",
          "type": "string"
        },
        {
          "name": "title",
          "type": "string"
        },
        {
          "name": "ipfs_hash",
          "type": "string"
        },
        {
          "name": "image_hash",
          "type": "string"
        },
        {
          "name": "vote",
          "type": "uint256"
        }
      ],
      "payable": false,
      "stateMutability": "view",
      "type": "function",
      "signature": "0xcaa5863c"
    },
    {
      "constant": false,
      "inputs": [
        {
          "name": "_id",
          "type": "string"
        },
        {
          "name": "_username",
          "type": "string"
        },
        {
          "name": "_password",
          "type": "string"
        },
        {
          "name": "_email",
          "type": "string"
        },
        {
          "name": "_etherwallet",
          "type": "string"
        },
        {
          "name": "_level",
          "type": "uint256"
        },
        {
          "name": "_reputation",
          "type": "uint256"
        }
      ],
      "name": "InsertUser",
      "outputs": [],
      "payable": true,
      "stateMutability": "payable",
      "type": "function",
      "signature": "0x6fad8a0e"
    },
    {
      "constant": false,
      "inputs": [
        {
          "name": "id",
          "type": "string"
        },
        {
          "name": "post_id",
          "type": "string"
        },
        {
          "name": "user_name",
          "type": "string"
        },
        {
          "name": "vote",
          "type": "uint256"
        }
      ],
      "name": "InsertComment",
      "outputs": [],
      "payable": true,
      "stateMutability": "payable",
      "type": "function",
      "signature": "0xe1c907cb"
    },
    {
      "constant": false,
      "inputs": [
        {
          "name": "id",
          "type": "string"
        },
        {
          "name": "title",
          "type": "string"
        },
        {
          "name": "ipfs_hash",
          "type": "string"
        },
        {
          "name": "image_hash",
          "type": "string"
        },
        {
          "name": "vote",
          "type": "uint256"
        }
      ],
      "name": "InsertPost",
      "outputs": [],
      "payable": true,
      "stateMutability": "payable",
      "type": "function",
      "signature": "0x71b9f20d"
    }
  ],
  "bytecode": "0x608060405260006003556000600455600060055534801561001f57600080fd5b506119568061002f6000396000f3fe608060405260043610610077576000357c0100000000000000000000000000000000000000000000000000000000900463ffffffff168062981cc91461007c578063553275be1461020f5780636fad8a0e1461048157806371b9f20d146107ac578063caa5863c14610a36578063e1c907cb14610c35575b600080fd5b34801561008857600080fd5b506100b56004803603602081101561009f57600080fd5b8101908080359060200190929190505050610e28565b60405180806020018060200180602001858152602001848103845288818151815260200191508051906020019080838360005b838110156101035780820151818401526020810190506100e8565b50505050905090810190601f1680156101305780820380516001836020036101000a031916815260200191505b50848103835287818151815260200191508051906020019080838360005b8381101561016957808201518184015260208101905061014e565b50505050905090810190601f1680156101965780820380516001836020036101000a031916815260200191505b50848103825286818151815260200191508051906020019080838360005b838110156101cf5780820151818401526020810190506101b4565b50505050905090810190601f1680156101fc5780820380516001836020036101000a031916815260200191505b5097505050505050505060405180910390f35b34801561021b57600080fd5b506102486004803603602081101561023257600080fd5b8101908080359060200190929190505050611020565b60405180806020018881526020018781526020018060200180602001806020018060200186810386528d818151815260200191508051906020019080838360005b838110156102a4578082015181840152602081019050610289565b50505050905090810190601f1680156102d15780820380516001836020036101000a031916815260200191505b5086810385528a818151815260200191508051906020019080838360005b8381101561030a5780820151818401526020810190506102ef565b50505050905090810190601f1680156103375780820380516001836020036101000a031916815260200191505b50868103845289818151815260200191508051906020019080838360005b83811015610370578082015181840152602081019050610355565b50505050905090810190601f16801561039d5780820380516001836020036101000a031916815260200191505b50868103835288818151815260200191508051906020019080838360005b838110156103d65780820151818401526020810190506103bb565b50505050905090810190601f1680156104035780820380516001836020036101000a031916815260200191505b50868103825287818151815260200191508051906020019080838360005b8381101561043c578082015181840152602081019050610421565b50505050905090810190601f1680156104695780820380516001836020036101000a031916815260200191505b509c5050505050505050505050505060405180910390f35b6107aa600480360360e081101561049757600080fd5b81019080803590602001906401000000008111156104b457600080fd5b8201836020820111156104c657600080fd5b803590602001918460018302840111640100000000831117156104e857600080fd5b91908080601f016020809104026020016040519081016040528093929190818152602001838380828437600081840152601f19601f8201169050808301925050505050505091929192908035906020019064010000000081111561054b57600080fd5b82018360208201111561055d57600080fd5b8035906020019184600183028401116401000000008311171561057f57600080fd5b91908080601f016020809104026020016040519081016040528093929190818152602001838380828437600081840152601f19601f820116905080830192505050505050509192919290803590602001906401000000008111156105e257600080fd5b8201836020820111156105f457600080fd5b8035906020019184600183028401116401000000008311171561061657600080fd5b91908080601f016020809104026020016040519081016040528093929190818152602001838380828437600081840152601f19601f8201169050808301925050505050505091929192908035906020019064010000000081111561067957600080fd5b82018360208201111561068b57600080fd5b803590602001918460018302840111640100000000831117156106ad57600080fd5b91908080601f016020809104026020016040519081016040528093929190818152602001838380828437600081840152601f19601f8201169050808301925050505050505091929192908035906020019064010000000081111561071057600080fd5b82018360208201111561072257600080fd5b8035906020019184600183028401116401000000008311171561074457600080fd5b91908080601f016020809104026020016040519081016040528093929190818152602001838380828437600081840152601f19601f820116905080830192505050505050509192919290803590602001909291908035906020019092919050505061135a565b005b610a34600480360360a08110156107c257600080fd5b81019080803590602001906401000000008111156107df57600080fd5b8201836020820111156107f157600080fd5b8035906020019184600183028401116401000000008311171561081357600080fd5b91908080601f016020809104026020016040519081016040528093929190818152602001838380828437600081840152601f19601f8201169050808301925050505050505091929192908035906020019064010000000081111561087657600080fd5b82018360208201111561088857600080fd5b803590602001918460018302840111640100000000831117156108aa57600080fd5b91908080601f016020809104026020016040519081016040528093929190818152602001838380828437600081840152601f19601f8201169050808301925050505050505091929192908035906020019064010000000081111561090d57600080fd5b82018360208201111561091f57600080fd5b8035906020019184600183028401116401000000008311171561094157600080fd5b91908080601f016020809104026020016040519081016040528093929190818152602001838380828437600081840152601f19601f820116905080830192505050505050509192919290803590602001906401000000008111156109a457600080fd5b8201836020820111156109b657600080fd5b803590602001918460018302840111640100000000831117156109d857600080fd5b91908080601f016020809104026020016040519081016040528093929190818152602001838380828437600081840152601f19601f82011690508083019250505050505050919291929080359060200190929190505050611465565b005b348015610a4257600080fd5b50610a6f60048036036020811015610a5957600080fd5b810190808035906020019092919050505061153c565b604051808060200180602001806020018060200186815260200185810385528a818151815260200191508051906020019080838360005b83811015610ac1578082015181840152602081019050610aa6565b50505050905090810190601f168015610aee5780820380516001836020036101000a031916815260200191505b50858103845289818151815260200191508051906020019080838360005b83811015610b27578082015181840152602081019050610b0c565b50505050905090810190601f168015610b545780820380516001836020036101000a031916815260200191505b50858103835288818151815260200191508051906020019080838360005b83811015610b8d578082015181840152602081019050610b72565b50505050905090810190601f168015610bba5780820380516001836020036101000a031916815260200191505b50858103825287818151815260200191508051906020019080838360005b83811015610bf3578082015181840152602081019050610bd8565b50505050905090810190601f168015610c205780820380516001836020036101000a031916815260200191505b50995050505050505050505060405180910390f35b610e2660048036036080811015610c4b57600080fd5b8101908080359060200190640100000000811115610c6857600080fd5b820183602082011115610c7a57600080fd5b80359060200191846001830284011164010000000083111715610c9c57600080fd5b91908080601f016020809104026020016040519081016040528093929190818152602001838380828437600081840152601f19601f82011690508083019250505050505050919291929080359060200190640100000000811115610cff57600080fd5b820183602082011115610d1157600080fd5b80359060200191846001830284011164010000000083111715610d3357600080fd5b91908080601f016020809104026020016040519081016040528093929190818152602001838380828437600081840152601f19601f82011690508083019250505050505050919291929080359060200190640100000000811115610d9657600080fd5b820183602082011115610da857600080fd5b80359060200191846001830284011164010000000083111715610dca57600080fd5b91908080601f016020809104026020016040519081016040528093929190818152602001838380828437600081840152601f19601f820116905080830192505050505050509192919290803590602001909291905050506117d2565b005b6001602052806000526040600020600091509050806000018054600181600116156101000203166002900480601f016020809104026020016040519081016040528092919081815260200182805460018160011615610100020316600290048015610ed45780601f10610ea957610100808354040283529160200191610ed4565b820191906000526020600020905b815481529060010190602001808311610eb757829003601f168201915b505050505090806001018054600181600116156101000203166002900480601f016020809104026020016040519081016040528092919081815260200182805460018160011615610100020316600290048015610f725780601f10610f4757610100808354040283529160200191610f72565b820191906000526020600020905b815481529060010190602001808311610f5557829003601f168201915b505050505090806002018054600181600116156101000203166002900480601f0160208091040260200160405190810160405280929190818152602001828054600181600116156101000203166002900480156110105780601f10610fe557610100808354040283529160200191611010565b820191906000526020600020905b815481529060010190602001808311610ff357829003601f168201915b5050505050908060030154905084565b6000602052806000526040600020600091509050806000018054600181600116156101000203166002900480601f0160208091040260200160405190810160405280929190818152602001828054600181600116156101000203166002900480156110cc5780601f106110a1576101008083540402835291602001916110cc565b820191906000526020600020905b8154815290600101906020018083116110af57829003601f168201915b505050505090806001015490806002015490806003018054600181600116156101000203166002900480601f0160208091040260200160405190810160405280929190818152602001828054600181600116156101000203166002900480156111765780601f1061114b57610100808354040283529160200191611176565b820191906000526020600020905b81548152906001019060200180831161115957829003601f168201915b505050505090806004018054600181600116156101000203166002900480601f0160208091040260200160405190810160405280929190818152602001828054600181600116156101000203166002900480156112145780601f106111e957610100808354040283529160200191611214565b820191906000526020600020905b8154815290600101906020018083116111f757829003601f168201915b505050505090806005018054600181600116156101000203166002900480601f0160208091040260200160405190810160405280929190818152602001828054600181600116156101000203166002900480156112b25780601f10611287576101008083540402835291602001916112b2565b820191906000526020600020905b81548152906001019060200180831161129557829003601f168201915b505050505090806006018054600181600116156101000203166002900480601f0160208091040260200160405190810160405280929190818152602001828054600181600116156101000203166002900480156113505780601f1061132557610100808354040283529160200191611350565b820191906000526020600020905b81548152906001019060200180831161133357829003601f168201915b5050505050905087565b60046000815480929190600101919050555060e06040519081016040528088815260200183815260200182815260200187815260200186815260200185815260200184815250600080600454815260200190815260200160002060008201518160000190805190602001906113d0929190611885565b5060208201518160010155604082015181600201556060820151816003019080519060200190611401929190611885565b50608082015181600401908051906020019061141e929190611885565b5060a082015181600501908051906020019061143b929190611885565b5060c0820151816006019080519060200190611458929190611885565b5090505050505050505050565b60036000815480929190600101919050555060a0604051908101604052808681526020018581526020018481526020018381526020018281525060026000600354815260200190815260200160002060008201518160000190805190602001906114d0929190611885565b5060208201518160010190805190602001906114ed929190611885565b50604082015181600201908051906020019061150a929190611885565b506060820151816003019080519060200190611527929190611885565b50608082015181600401559050505050505050565b6002602052806000526040600020600091509050806000018054600181600116156101000203166002900480601f0160208091040260200160405190810160405280929190818152602001828054600181600116156101000203166002900480156115e85780601f106115bd576101008083540402835291602001916115e8565b820191906000526020600020905b8154815290600101906020018083116115cb57829003601f168201915b505050505090806001018054600181600116156101000203166002900480601f0160208091040260200160405190810160405280929190818152602001828054600181600116156101000203166002900480156116865780601f1061165b57610100808354040283529160200191611686565b820191906000526020600020905b81548152906001019060200180831161166957829003601f168201915b505050505090806002018054600181600116156101000203166002900480601f0160208091040260200160405190810160405280929190818152602001828054600181600116156101000203166002900480156117245780601f106116f957610100808354040283529160200191611724565b820191906000526020600020905b81548152906001019060200180831161170757829003601f168201915b505050505090806003018054600181600116156101000203166002900480601f0160208091040260200160405190810160405280929190818152602001828054600181600116156101000203166002900480156117c25780601f10611797576101008083540402835291602001916117c2565b820191906000526020600020905b8154815290600101906020018083116117a557829003601f168201915b5050505050908060040154905085565b600560008154809291906001019190505550608060405190810160405280858152602001848152602001838152602001828152506001600060055481526020019081526020016000206000820151816000019080519060200190611837929190611885565b506020820151816001019080519060200190611854929190611885565b506040820151816002019080519060200190611871929190611885565b506060820151816003015590505050505050565b828054600181600116156101000203166002900490600052602060002090601f016020900481019282601f106118c657805160ff19168380011785556118f4565b828001600101855582156118f4579182015b828111156118f35782518255916020019190600101906118d8565b5b5090506119019190611905565b5090565b61192791905b8082111561192357600081600090555060010161190b565b5090565b9056fea165627a7a72305820e6d702a781c607993ab8bdc2d1a17e96265869ac22439ec67841e2ac6a0ef3330029",
  "source": "pragma solidity ^0.5.0;\n\ncontract Social {\n    struct Posts {\n        string id;\n        string title;\n        string ipfs_hash;\n        string image_hash;\n        uint vote;   \n    }\n    struct Users {\n        string id;\n        uint level;\n        uint reputation;\n        string userName;\n        string password;\n        string email;\n        string etherwallet;\n\n    }\n    struct Comments {\n        string id;\n        string post_id;\n        string user_name;\n        uint vote;\n    }\n    mapping (uint256 => Users) public user;\n    mapping (uint256 => Comments) public comment;\n    mapping (uint256 => Posts) public post;\n    uint256 total_post = 0;\n    uint256 total_user = 0;\n    uint256 total_comment = 0;\n\n    // event InsertUserEvent(uint _id, string _username, string password, string _email, string _etherwallet);\n\n    function InsertUser\n    (string memory _id,string memory _username,string memory _password,string memory _email,string memory _etherwallet,uint _level,\n        uint _reputation) public payable {\n        total_user++;\n        user[total_user] = Users(_id, _level, _reputation, _username, _password, _email, _etherwallet);      \n    }\n    function InsertComment(string memory id, string memory post_id,string memory user_name,uint vote) public payable {\n        total_comment++;\n        comment[total_comment] = Comments(id,post_id,user_name,vote);\n    }\n    function InsertPost(string memory id, string memory title, string memory ipfs_hash, string memory image_hash, uint vote) public payable {\n        total_post++;\n        post[total_post] = Posts(id,title,ipfs_hash,image_hash,vote);\n    }\n}\n",
  "sourcePath": "/home/onur/Desktop/ff/vue-js/contracts/Social.sol",
  "compiler": {
    "name": "solc",
    "version": "0.5.0+commit.1d4f565a.Emscripten.clang"
  },
  "schemaVersion": "3.0.6",
  "updatedAt": "2019-05-21T22:02:43.882Z",
  "devdoc": {
    "methods": {}
  },
  "userdoc": {
    "methods": {}
  }
}